{
  "address": "0x71C95911E9a5D330f4D621842EC243EE1343292e",
  "abi": [
    {
      "inputs": [
        {
          "internalType": "address",
          "name": "PriceFeedAddress",
          "type": "address"
        }
      ],
      "stateMutability": "nonpayable",
      "type": "constructor"
    },
    {
      "inputs": [],
      "name": "NotOwner",
      "type": "error"
    },
    {
      "inputs": [],
      "name": "MINIMUM_USD",
      "outputs": [
        {
          "internalType": "uint256",
          "name": "",
          "type": "uint256"
        }
      ],
      "stateMutability": "view",
      "type": "function"
    },
    {
      "inputs": [
        {
          "internalType": "address",
          "name": "",
          "type": "address"
        }
      ],
      "name": "addressToAmountFunded",
      "outputs": [
        {
          "internalType": "uint256",
          "name": "",
          "type": "uint256"
        }
      ],
      "stateMutability": "view",
      "type": "function"
    },
    {
      "inputs": [],
      "name": "fund",
      "outputs": [],
      "stateMutability": "payable",
      "type": "function"
    },
    {
      "inputs": [
        {
          "internalType": "uint256",
          "name": "",
          "type": "uint256"
        }
      ],
      "name": "funders",
      "outputs": [
        {
          "internalType": "address",
          "name": "",
          "type": "address"
        }
      ],
      "stateMutability": "view",
      "type": "function"
    },
    {
      "inputs": [
        {
          "internalType": "address",
          "name": "fundingAddress",
          "type": "address"
        }
      ],
      "name": "getAddressToAmountFunded",
      "outputs": [
        {
          "internalType": "uint256",
          "name": "",
          "type": "uint256"
        }
      ],
      "stateMutability": "view",
      "type": "function"
    },
    {
      "inputs": [],
      "name": "getFundersArray",
      "outputs": [
        {
          "internalType": "address[]",
          "name": "",
          "type": "address[]"
        }
      ],
      "stateMutability": "view",
      "type": "function"
    },
    {
      "inputs": [],
      "name": "getPriceFeed",
      "outputs": [
        {
          "internalType": "contract AggregatorV3Interface",
          "name": "",
          "type": "address"
        }
      ],
      "stateMutability": "view",
      "type": "function"
    },
    {
      "inputs": [],
      "name": "i_owner",
      "outputs": [
        {
          "internalType": "address",
          "name": "",
          "type": "address"
        }
      ],
      "stateMutability": "view",
      "type": "function"
    },
    {
      "inputs": [],
      "name": "priceFeed",
      "outputs": [
        {
          "internalType": "contract AggregatorV3Interface",
          "name": "",
          "type": "address"
        }
      ],
      "stateMutability": "view",
      "type": "function"
    },
    {
      "inputs": [],
      "name": "withdraw",
      "outputs": [],
      "stateMutability": "nonpayable",
      "type": "function"
    }
  ],
  "transactionHash": "0x470ebc96efc47015cae28e420afb0f92b44950d9fa71e395fde79bd205b3c2dd",
  "args": [
    "0x8464135c8F25Da09e49BC8782676a84730C318bC"
  ],
  "numDeployments": 1,
  "solcInputHash": "2521c8e575f1f6052ae0a1615a7e02f2",
  "bytecode": "0x60806040523480156200001157600080fd5b50604051620011343803806200113483398181016040528101906200003791906200012a565b33600260006101000a81548173ffffffffffffffffffffffffffffffffffffffff021916908373ffffffffffffffffffffffffffffffffffffffff16021790555080600360006101000a81548173ffffffffffffffffffffffffffffffffffffffff021916908373ffffffffffffffffffffffffffffffffffffffff160217905550506200015c565b600080fd5b600073ffffffffffffffffffffffffffffffffffffffff82169050919050565b6000620000f282620000c5565b9050919050565b6200010481620000e5565b81146200011057600080fd5b50565b6000815190506200012481620000f9565b92915050565b600060208284031215620001435762000142620000c0565b5b6000620001538482850162000113565b91505092915050565b610fc8806200016c6000396000f3fe6080604052600436106100915760003560e01c8063741bef1a11610059578063741bef1a1461017d5780639e87a5cd146101a8578063b60d4288146101d3578063dba6335f146101dd578063dc0d3dff1461020857610091565b80630343fb25146100965780633ccfd60b146100d35780633e47d6f3146100ea5780634eeb4da6146101275780636b69a59214610152575b600080fd5b3480156100a257600080fd5b506100bd60048036038101906100b89190610942565b610245565b6040516100ca9190610988565b60405180910390f35b3480156100df57600080fd5b506100e861028d565b005b3480156100f657600080fd5b50610111600480360381019061010c9190610942565b6104c9565b60405161011e9190610988565b60405180910390f35b34801561013357600080fd5b5061013c6104e1565b6040516101499190610a61565b60405180910390f35b34801561015e57600080fd5b5061016761056f565b6040516101749190610988565b60405180910390f35b34801561018957600080fd5b5061019261057c565b60405161019f9190610ae2565b60405180910390f35b3480156101b457600080fd5b506101bd6105a2565b6040516101ca9190610ae2565b60405180910390f35b6101db6105cc565b005b3480156101e957600080fd5b506101f2610706565b6040516101ff9190610b0c565b60405180910390f35b34801561021457600080fd5b5061022f600480360381019061022a9190610b53565b61072c565b60405161023c9190610b0c565b60405180910390f35b60008060008373ffffffffffffffffffffffffffffffffffffffff1673ffffffffffffffffffffffffffffffffffffffff168152602001908152602001600020549050919050565b600260009054906101000a900473ffffffffffffffffffffffffffffffffffffffff1673ffffffffffffffffffffffffffffffffffffffff163373ffffffffffffffffffffffffffffffffffffffff1614610314576040517f30cd747100000000000000000000000000000000000000000000000000000000815260040160405180910390fd5b60005b6001805490508110156103b95760006001828154811061033a57610339610b80565b5b9060005260206000200160009054906101000a900473ffffffffffffffffffffffffffffffffffffffff16905060008060008373ffffffffffffffffffffffffffffffffffffffff1673ffffffffffffffffffffffffffffffffffffffff16815260200190815260200160002081905550508080600101915050610317565b50600067ffffffffffffffff8111156103d5576103d4610baf565b5b6040519080825280602002602001820160405280156104035781602001602082028036833780820191505090505b5060019080519060200190610419929190610838565b5060003373ffffffffffffffffffffffffffffffffffffffff164760405161044090610c0f565b60006040518083038185875af1925050503d806000811461047d576040519150601f19603f3d011682016040523d82523d6000602084013e610482565b606091505b50509050806104c6576040517f08c379a00000000000000000000000000000000000000000000000000000000081526004016104bd90610c81565b60405180910390fd5b50565b60006020528060005260406000206000915090505481565b6060600180548060200260200160405190810160405280929190818152602001828054801561056557602002820191906000526020600020905b8160009054906101000a900473ffffffffffffffffffffffffffffffffffffffff1673ffffffffffffffffffffffffffffffffffffffff168152602001906001019080831161051b575b5050505050905090565b6802b5e3af16b188000081565b600360009054906101000a900473ffffffffffffffffffffffffffffffffffffffff1681565b6000600360009054906101000a900473ffffffffffffffffffffffffffffffffffffffff16905090565b6802b5e3af16b188000061060b600360009054906101000a900473ffffffffffffffffffffffffffffffffffffffff163461076b90919063ffffffff16565b101561064c576040517f08c379a000000000000000000000000000000000000000000000000000000000815260040161064390610ced565b60405180910390fd5b346000803373ffffffffffffffffffffffffffffffffffffffff1673ffffffffffffffffffffffffffffffffffffffff168152602001908152602001600020600082825461069a9190610d3c565b925050819055506001339080600181540180825580915050600190039060005260206000200160009091909190916101000a81548173ffffffffffffffffffffffffffffffffffffffff021916908373ffffffffffffffffffffffffffffffffffffffff160217905550565b600260009054906101000a900473ffffffffffffffffffffffffffffffffffffffff1681565b6001818154811061073c57600080fd5b906000526020600020016000915054906101000a900473ffffffffffffffffffffffffffffffffffffffff1681565b600080610777836107a7565b90506000670de0b6b3a764000085836107909190610d70565b61079a9190610de1565b9050809250505092915050565b6000808273ffffffffffffffffffffffffffffffffffffffff1663feaf968c6040518163ffffffff1660e01b815260040160a060405180830381865afa1580156107f5573d6000803e3d6000fd5b505050506040513d601f19601f820116820180604052508101906108199190610e9f565b5050509150506402540be400816108309190610f1a565b915050919050565b8280548282559060005260206000209081019282156108b1579160200282015b828111156108b05782518260006101000a81548173ffffffffffffffffffffffffffffffffffffffff021916908373ffffffffffffffffffffffffffffffffffffffff16021790555091602001919060010190610858565b5b5090506108be91906108c2565b5090565b5b808211156108db5760008160009055506001016108c3565b5090565b600080fd5b600073ffffffffffffffffffffffffffffffffffffffff82169050919050565b600061090f826108e4565b9050919050565b61091f81610904565b811461092a57600080fd5b50565b60008135905061093c81610916565b92915050565b600060208284031215610958576109576108df565b5b60006109668482850161092d565b91505092915050565b6000819050919050565b6109828161096f565b82525050565b600060208201905061099d6000830184610979565b92915050565b600081519050919050565b600082825260208201905092915050565b6000819050602082019050919050565b6109d881610904565b82525050565b60006109ea83836109cf565b60208301905092915050565b6000602082019050919050565b6000610a0e826109a3565b610a1881856109ae565b9350610a23836109bf565b8060005b83811015610a54578151610a3b88826109de565b9750610a46836109f6565b925050600181019050610a27565b5085935050505092915050565b60006020820190508181036000830152610a7b8184610a03565b905092915050565b6000819050919050565b6000610aa8610aa3610a9e846108e4565b610a83565b6108e4565b9050919050565b6000610aba82610a8d565b9050919050565b6000610acc82610aaf565b9050919050565b610adc81610ac1565b82525050565b6000602082019050610af76000830184610ad3565b92915050565b610b0681610904565b82525050565b6000602082019050610b216000830184610afd565b92915050565b610b308161096f565b8114610b3b57600080fd5b50565b600081359050610b4d81610b27565b92915050565b600060208284031215610b6957610b686108df565b5b6000610b7784828501610b3e565b91505092915050565b7f4e487b7100000000000000000000000000000000000000000000000000000000600052603260045260246000fd5b7f4e487b7100000000000000000000000000000000000000000000000000000000600052604160045260246000fd5b600081905092915050565b50565b6000610bf9600083610bde565b9150610c0482610be9565b600082019050919050565b6000610c1a82610bec565b9150819050919050565b600082825260208201905092915050565b7f43616c6c206661696c6564000000000000000000000000000000000000000000600082015250565b6000610c6b600b83610c24565b9150610c7682610c35565b602082019050919050565b60006020820190508181036000830152610c9a81610c5e565b9050919050565b7f596f75206e65656420746f207370656e64206d6f726520455448210000000000600082015250565b6000610cd7601b83610c24565b9150610ce282610ca1565b602082019050919050565b60006020820190508181036000830152610d0681610cca565b9050919050565b7f4e487b7100000000000000000000000000000000000000000000000000000000600052601160045260246000fd5b6000610d478261096f565b9150610d528361096f565b9250828201905080821115610d6a57610d69610d0d565b5b92915050565b6000610d7b8261096f565b9150610d868361096f565b9250828202610d948161096f565b91508282048414831517610dab57610daa610d0d565b5b5092915050565b7f4e487b7100000000000000000000000000000000000000000000000000000000600052601260045260246000fd5b6000610dec8261096f565b9150610df78361096f565b925082610e0757610e06610db2565b5b828204905092915050565b600069ffffffffffffffffffff82169050919050565b610e3181610e12565b8114610e3c57600080fd5b50565b600081519050610e4e81610e28565b92915050565b6000819050919050565b610e6781610e54565b8114610e7257600080fd5b50565b600081519050610e8481610e5e565b92915050565b600081519050610e9981610b27565b92915050565b600080600080600060a08688031215610ebb57610eba6108df565b5b6000610ec988828901610e3f565b9550506020610eda88828901610e75565b9450506040610eeb88828901610e8a565b9350506060610efc88828901610e8a565b9250506080610f0d88828901610e3f565b9150509295509295909350565b6000610f2582610e54565b9150610f3083610e54565b9250828202610f3e81610e54565b91507f80000000000000000000000000000000000000000000000000000000000000008414600084121615610f7657610f75610d0d565b5b8282058414831517610f8b57610f8a610d0d565b5b509291505056fea26469706673582212202295a6dc67820fb7a3b1459c2ed6005d5a50753985fbefd0e84125017662e8eb64736f6c63430008180033",
  "devdoc": {
    "kind": "dev",
    "methods": {},
    "version": 1
  },
  "userdoc": {
    "kind": "user",
    "methods": {},
    "version": 1
  },
  "storageLayout": {
    "storage": [
      {
        "astId": 324,
        "contract": "contracts/FundMe.sol:FundMe",
        "label": "addressToAmountFunded",
        "offset": 0,
        "slot": "0",
        "type": "t_mapping(t_address,t_uint256)"
      },
      {
        "astId": 327,
        "contract": "contracts/FundMe.sol:FundMe",
        "label": "funders",
        "offset": 0,
        "slot": "1",
        "type": "t_array(t_address)dyn_storage"
      },
      {
        "astId": 329,
        "contract": "contracts/FundMe.sol:FundMe",
        "label": "i_owner",
        "offset": 0,
        "slot": "2",
        "type": "t_address"
      },
      {
        "astId": 339,
        "contract": "contracts/FundMe.sol:FundMe",
        "label": "priceFeed",
        "offset": 0,
        "slot": "3",
        "type": "t_contract(AggregatorV3Interface)104"
      }
    ],
    "types": {
      "t_address": {
        "encoding": "inplace",
        "label": "address",
        "numberOfBytes": "20"
      },
      "t_array(t_address)dyn_storage": {
        "base": "t_address",
        "encoding": "dynamic_array",
        "label": "address[]",
        "numberOfBytes": "32"
      },
      "t_contract(AggregatorV3Interface)104": {
        "encoding": "inplace",
        "label": "contract AggregatorV3Interface",
        "numberOfBytes": "20"
      },
      "t_mapping(t_address,t_uint256)": {
        "encoding": "mapping",
        "key": "t_address",
        "label": "mapping(address => uint256)",
        "numberOfBytes": "32",
        "value": "t_uint256"
      },
      "t_uint256": {
        "encoding": "inplace",
        "label": "uint256",
        "numberOfBytes": "32"
      }
    }
  }
}